:100000000C9462000C948A000C948A000C948A0070
:100010000C948A000C948A000C948A000C948A0038
:100020000C948A000C948A000C948A000C948A0028
:100030000C948A000C948A000C948A000C948A0018
:100040000C945F050C948A000C94CF050C94A905C0
:100050000C948A000C948A000C948A000C948A00F8
:100060000C948A000C948A000000000023002600F3
:10007000290000000000240027002A0000000000E2
:10008000250028002B0004040404040404040202D4
:100090000202020203030303030301020408102007
:1000A0004080010204081020010204081020000012
:1000B0000008000201000003040700000000000027
:1000C00000008E0A11241FBECFEFD8E0DEBFCDBFE7
:1000D00022E0A2E8B1E001C01D92AC37B207E1F71F
:1000E00011E0A0E0B1E0E2E4FBE102C005900D9276
:1000F000A238B107D9F710E0C2E6D0E004C02197DA
:10010000FE010E94850BC136D107C9F70E94010686
:100110000C949F0D0C940000833081F028F4813002
:1001200099F08230A9F008958730A9F08830C9F09D
:100130008430B1F4809180008F7D03C08091800075
:100140008F7780938000089584B58F7784BD08955C
:1001500084B58F7DFBCF8091B0008F778093B00006
:1001600008958091B0008F7DF9CF1F93CF93DF93D7
:10017000282F30E0F901E255FF4F8491F901E6564E
:10018000FF4FD491F901EA57FF4FC491CC23A9F056
:10019000162F81110E948C00EC2FF0E0EE0FFF1F54
:1001A000E458FF4FA591B4918FB7F894EC911111D9
:1001B00008C0D095DE23DC938FBFDF91CF911F91D4
:1001C0000895DE2BF8CFCF93DF9390E0FC01E65645
:1001D000FF4F24918A579F4FFC0184918823C9F0D7
:1001E00090E0880F991FFC01EE58FF4FA591B49144
:1001F000FC01E458FF4FC591D49161110DC09FB728
:10020000F8948C91209582238C93888128232883CD
:100210009FBFDF91CF910895623051F49FB7F8945A
:100220003C91822F809583238C93E8812E2BEFCFF6
:100230008FB7F894EC912E2B2C938FBFEACF1F939E
:10024000CF93DF93182FEB0161E00E94E30020972A
:1002500039F460E0812FDF91CF911F910C94B500AC
:10026000CF3FD10511F461E0F5CFE12FF0E0E25589
:10027000FF4FE491E33031F140F4E130B1F0E2308E
:10028000E1F0C038D1057CF7E4CFE73029F1E83060
:1002900059F1E430B1F78091800080628093800052
:1002A000D0938B00C0938A0004C084B5806884BD5D
:1002B000C7BDDF91CF911F91089584B5806284BD41
:1002C000C8BDF7CF80918000806880938000D09374
:1002D0008900C0938800EDCF8091B0008068809342
:1002E000B000C093B300E5CF8091B00080628093EE
:1002F000B000C093B400DDCFAF92BF92CF92DF9237
:10030000EF92FF920F931F93CF93DF936C017B01CA
:100310008B01040F151FEB015E01AE18BF08C0175B
:10032000D10759F06991D601ED91FC910190F081CE
:10033000E02DC6010995892B79F7C501DF91CF9191
:100340001F910F91FF90EF90DF90CF90BF90AF90F3
:100350000895FC0144815581608171818BED91E0AC
:100360000C947C01FC01538D448D252F30E0842FAB
:1003700090E0821B930B541710F0CF9608950197CD
:100380000895FC01918D828D981761F0A28DAE0FBA
:10039000BF2FB11D5D968C91928D9F5F9F73928F41
:1003A00090E008958FEF9FEF08952FB7F894809114
:1003B000D7019091D801A091D901B091DA012FBF56
:1003C0008093E3019093E401A093E501B093E601EB
:1003D0008BED91E00E94C10197FF26C02FB7F894E2
:1003E0008091D7019091D801A091D901B091DA0103
:1003F0002FBF4091E3015091E4016091E5017091BC
:10040000E601841B950BA60BB70B4091DF015091C1
:10041000E0016091E1017091E20184179507A60760
:10042000B707B0F28FEF9FEF0895FC01918D828D99
:10043000981731F0828DE80FF11D858D90E00895B9
:100440008FEF9FEF0895FC01918D228D892F90E011
:10045000805C9F4F821B91098F73992708958BEDC4
:1004600091E00E94230221E0892B09F420E0822FF1
:10047000089580E090E0892B29F00E942F028111DD
:100480000C9400000895FC01A48DA80FB92FB11D94
:10049000A35ABF4F2C91848D90E001968F739927BA
:1004A000848FA689B7892C93A089B1898C91837098
:1004B00080648C93938D848D981306C00288F38991
:1004C000E02D80818F7D80830895EF92FF920F93BE
:1004D0001F93CF93DF93EC0181E0888F9B8D8C8DF0
:1004E00098131AC0E889F989808185FF15C09FB7E4
:1004F000F894EE89FF896083E889F98980818370A7
:10050000806480839FBF81E090E0DF91CF911F9155
:100510000F91FF90EF900895F62E0B8D10E00F5F76
:100520001F4F0F731127E02E8C8D8E110CC00FB64C
:1005300007FCFACFE889F989808185FFF5CFCE01E4
:100540000E944302F1CFEB8DEC0FFD2FF11DE35A1A
:10055000FF4FF0829FB7F8940B8FEA89FB89808167
:100560008062CFCFCF93DF93EC01888D8823B9F0E1
:10057000AA89BB89E889F9898C9185FD03C08081AE
:1005800086FD0DC00FB607FCF7CF8C9185FFF2CF2B
:10059000808185FFEDCFCE010E944302E9CFDF913C
:1005A000CF910895FC0101900020E9F73197AF0148
:1005B000481B590BBC018BED91E00C947C0100971A
:1005C00011F00C94D20290E080E0089588E191E06F
:1005D0000C94D202CF93DF93D0E0C0E0009719F0E3
:1005E0000E94D202EC010E94E6028C0F9D1FDF9157
:1005F000CF910895CF93DF93FC0124813581232B84
:1006000071F0C081D1816CE270E0CE010E94760D64
:10061000009729F08C1B9D0BDF91CF9108958FEFF0
:100620009FEFFACF8F929F92AF92BF92CF92DF92BD
:10063000EF92FF920F931F93CF93DF93CDB7DEB767
:10064000A1970FB6F894DEBF0FBECDBF6C01990F16
:10065000EE08FF08F7FE41C06DE28BED91E00E94CD
:1006600065028C0122273327A9012C193D094E0967
:100670005F0919A2CE0181967C019AE0892E912C06
:10068000A12CB12CCA01B901A50194010E94630BF0
:10069000605DF70162937F01211531054105510528
:1006A00089F790E080E0309719F0CF010E94D202E4
:1006B000800F911FA1960FB6F894DEBF0FBECDBF7D
:1006C000DF91CF911F910F91FF90EF90DF90CF902E
:1006D000BF90AF909F908F900895A701960119A2A7
:1006E0008E010F5D1F4F8AE0C82ED12CE12CF12C1A
:1006F000CA01B901A70196010E94630B605DF80170
:1007000062938F01211531054105510589F790E06C
:1007100080E0309779F2CF010E94D202CBCFFC016A
:1007200080819181009711F00C94BB0A60E070E029
:10073000CB010895FB0144815581FC012481358161
:100740002417350778F080819181009759F0FB01DB
:10075000608171816115710529F00E94910D21E080
:10076000892B09F020E0822F08950F931F93CF93D8
:10077000DF93EC0188819981009759F02A813B81B0
:100780002617370730F081E0DF91CF911F910F914D
:1007900008958B016F5F7F4F0E94B00C009759F056
:1007A000998388831B830A832C813D81232B59F7EE
:1007B000FC011082E8CF80E0E7CFEF92FF920F9329
:1007C0001F93CF93DF936115710541F480E0DF91B2
:1007D000CF911F910F91FF90EF9008954115510512
:1007E000B1F07B01EC010C811D81040F151FB801D4
:1007F0000E94B503882351F3288139818C819D8122
:10080000B701820F931F0E948A0D1D830C8381E024
:10081000DECFCF93DF93EC0188819981009711F0AF
:100820000E94270C198218821D821C821B821A8248
:10083000DF91CF910895CF93DF93EC01611571059E
:1008400039F4CE010E940904CE01DF91CF910895C1
:10085000FB0101900020E9F73197AF01461B570BD0
:100860000E94DD03882369F3EFCFEF92FF920F938D
:100870001F93CF93DF93EC017B018A01BA010E94A1
:10088000B50381110BC0CE010E940904CE01DF9196
:10089000CF911F910F91FF90EF9008951D830C83CE
:1008A000B701888199810E948A0DF0CFEF92FF9263
:1008B0000F931F93CF93DF93CDB7DEB762970FB639
:1008C000F894DEBF0FBECDBF8C01CB01F8011182C1
:1008D000108213821282158214824AE09E012F5FD9
:1008E0003F4F7901B9010E94E20AF701019000200F
:1008F000E9F73197AF014E195F09B701C8010E94AE
:10090000350462960FB6F894DEBF0FBECDBFDF91FF
:10091000CF911F910F91FF90EF900895FB01DC01A3
:1009200011961C921E9213961C921E921297159667
:100930001C921E9214978617970749F06081718167
:100940006115710521F0448155810C943504089599
:10095000FC01118210821382128215821482FB0123
:1009600001900020E9F73197AF01461B570B0C941B
:100970003504AF92BF92CF92DF92EF92FF920F9326
:100980001F93CF93DF937C016B015A0189012417D8
:10099000350720F48B2D5901042F182F6AE171E0DF
:1009A000C7010E94A804D6011496CD91DC91AC1623
:1009B000BD0620F50C171D0708F4E801D601ED91DE
:1009C000FC911197EC0FFD1F108110826D917C91AD
:1009D0006A0D7B1D61157105E9F0FB010190002096
:1009E000E9F73197AF01461B570BC7010E94350449
:1009F000F60180819181C80FD91F1883C701DF914B
:100A0000CF911F910F91FF90EF90DF90CF90BF900B
:100A1000AF900895C7010E940904EACFFC018081CC
:100A20009181009711F00C94270C08950F931F9358
:100A3000CF93DF93CDB7DEB72C970FB6F894DEBF18
:100A40000FBECDBF8C01CB010E978630910598F576
:100A5000BC01CE0107960E94560460E871E0CE0109
:100A600001960E94A8044B855C856F817885CE0134
:100A700001960E94DD03811104C0CE0101960E94FF
:100A80000904BE016F5F7F4FC8010E948E04CE0132
:100A900001960E940E05CE0107960E940E05C80120
:100AA0002C960FB6F894DEBF0FBECDBFDF91CF916D
:100AB0001F910F910895C8010E945604F0CF1F9214
:100AC0000F920FB60F9211242F933F938F939F9302
:100AD000AF93BF938091D7019091D801A091D90194
:100AE000B091DA013091D60123E0230F2D3758F56C
:100AF0000196A11DB11D2093D6018093D70190933B
:100B0000D801A093D901B093DA018091D2019091DC
:100B1000D301A091D401B091D5010196A11DB11DC1
:100B20008093D2019093D301A093D401B093D501C7
:100B3000BF91AF919F918F913F912F910F900FBED9
:100B40000F901F90189526E8230F0296A11DB11D46
:100B5000D2CF1F920F920FB60F9211242F933F9373
:100B60004F935F936F937F938F939F93AF93BF93B5
:100B7000EF93FF938BED91E00E944302FF91EF9181
:100B8000BF91AF919F918F917F916F915F914F91A5
:100B90003F912F910F900FBE0F901F9018951F92AD
:100BA0000F920FB60F9211242F938F939F93EF9371
:100BB000FF93E091EB01F091EC018081E091F10174
:100BC000F091F20182FD1BC090818091F4018F5F52
:100BD0008F732091F501821741F0E091F401F0E06C
:100BE000E552FE4F958F8093F401FF91EF919F9115
:100BF0008F912F910F900FBE0F901F9018958081AD
:100C0000F4CFCF93DF93CDB7DEB768970FB6F894E4
:100C1000DEBF0FBECDBF789484B5826084BD84B53D
:100C2000816084BD85B5826085BD85B5816085BDE7
:100C300080916E00816080936E001092810080919F
:100C40008100826080938100809181008160809327
:100C50008100809180008160809380008091B1004C
:100C600084608093B1008091B00081608093B00077
:100C700080917A00846080937A0080917A0082600B
:100C800080937A0080917A00816080937A008091CD
:100C90007A00806880937A001092C100E091EB01A5
:100CA000F091EC0182E08083E091E701F091E801AE
:100CB0001082E091E901F091EA018FEC80831092BB
:100CC000F301E091EF01F091F00186E08083E09183
:100CD000ED01F091EE01808180618083E091ED0172
:100CE000F091EE01808188608083E091ED01F091C8
:100CF000EE01808180688083E091ED01F091EE014A
:100D000080818F7D808396E8E92E91E0F92E2EEA8E
:100D1000C22E21E0D22E12E0AA24A394B12C61E0CD
:100D2000812F0E94E30060E0812F0E94B500F60150
:100D3000A192B1926F01F701119211927F011F5F91
:100D4000143169F78BED91E00E942302892B09F49D
:100D5000C4C16AE171E0CE0143960E94A8040E94DA
:100D6000D50197FD0FC08A30910561F089831A8201
:100D700041E050E0BE016F5F7F4FCE0143960E947D
:100D8000DD03EDCF6EE471E0CE0101960E94A80470
:100D9000BE016F5F7F4FCE0143960E949A03182FCA
:100DA000CE0101960E940E05112309F488C0CE01E0
:100DB00043960E94FA028C01863091050CF489C199
:100DC0009C0145E050E0BE016D5E7F4FCE01019673
:100DD0000E94B904CE0101960E948F036B01CE01DF
:100DE00001960E940E052F89388DA8014F5F5F4F35
:100DF000BE016D5E7F4FCE0101960E94B904CE0107
:100E000001960E948F032B01CE0101960E940E05D0
:100E1000C6010297429708F05CC152018601000F9B
:100E2000111FF2E04F165104F9F460E08C2D0E947E
:100E3000E300F801E655FE4F518240828BE291E0DB
:100E40000E94DF02B601CE0101960E941605CE0176
:100E500001960E94A901CE0101960E940E0580E331
:100E600091E00E94EA0235C161E081E04816510438
:100E700009F060E08C2D0E94E300F801E655FE4F7A
:100E8000518240828BE291E00E94DF02B601CE01E6
:100E900001960E941605CE0101960E94A901CE017D
:100EA00001960E940E058AE391E00E94DF028BE129
:100EB00091E0AA94AB28A9F28FE191E0D2CF61E44E
:100EC00071E0CE0101960E94A804BE016F5F7F4FC2
:100ED000CE0143960E949A03182FCE0101960E94DC
:100EE0000E05CE014396112309F4ADC00E94FA020B
:100EF0008C01181619060CF0ECC09C0144E050E07F
:100F0000BE016D5E7F4FCE0101960E94B904CE01F5
:100F100001960E948F032B014B01CE0101960E9486
:100F20000E052F89388DA8014F5F5F4FBE016D5EA2
:100F30007F4FCE0101960E94B904CE0101960E9416
:100F40008F036B015B01CE0101960E940E05F3E059
:100F50004F16510441F0C20105978230910518F0F7
:100F600004970397A8F58201000F111FF801E655B9
:100F7000FE4F80819181019759F5B601842D0E9421
:100F80001F01F801EE57FE4FD182C0828BE291E043
:100F90000E94DF02B201CE0101960E941605CE0129
:100FA00001960E94A901CE0101960E940E058AE0D9
:100FB0008816910454F486E491E00E94DF02C60191
:100FC0000E9412030E94E60284C087E491E0F5CFFC
:100FD000C2010E97069708F07CC07201EE0CFF1C50
:100FE000F701E655FE4F80819181019709F071C0AC
:100FF00011E01A141B040CF010E0612F842D0E94E4
:10100000B500F701EE57FE4F612F70E071836083EA
:101010008BE291E00E94DF02B201CE0101960E94B4
:101020001605CE0101960E94A901CE0101960E94EB
:101030000E0582E291E01A141B0414F086E291E09E
:101040000E94DF02BFCF0E94FA028C011816190617
:101050000CF052C08F89988D892B09F44BC0EB8915
:10106000FC89309709F446C08081082E000C990B4A
:10107000C0970A9708F040C0980150E040E0BE01D8
:101080006D5E7F4FCE0101960E94B904CE0101969C
:101090000E948F032B01CE0101960E940E052F891D
:1010A000388DA8014F5F5F4FBE016D5E7F4FCE014F
:1010B00001960E94B904CE0101960E948F034B0154
:1010C000CE0101960E940E05C2010297429708F4D4
:1010D000BFC0CE0143960E940E0580E090E0892BB0
:1010E00009F430CE0E942F02882309F42BCE0E94EF
:1010F000000028CE80E0B9CF6BE471E0CE0101960C
:101100000E94A804BE016F5F7F4FCE0143960E94EC
:101110009A03182FCE0101960E940E051111D7C017
:1011200062E671E0CE0101960E94A804BE016F5FE5
:101130007F4FCE0143960E949A03182FCE0101964D
:101140000E940E052F89388D112309F414C144E043
:1011500050E0BE016D5E7F4FCE0101960E94B90442
:10116000CE0101960E948F037B01CE0101960E9461
:101170000E0588248A94912C81E0E816F10411F080
:10118000912C812C42E8C42E41E0D42E5EEAA52E9B
:1011900051E0B52E02E010E0F501819191915F01DF
:1011A000892BF9F077247394F1E0EF16F10409F03C
:1011B000712C802F0330110561F098012550310901
:1011C0002230310530F0245031092330310508F048
:1011D000CEC0B4010E941F01672D70E0F601758337
:1011E00064830F5F1F4FF2E0CF0ED11C0431110555
:1011F00099F603E211E0EA94EF2811F007E211E01A
:1012000067E671E0CE0101960E94A804BE016F5FFF
:101210007F4FCE0107960E948E04B801CE0107963B
:101220000E941B04BC01CE010D960E948E04CE01CB
:1012300007960E940E05CE0101960E940E05CE0172
:101240000D960E94A9010E94E602CE010D9689C06A
:1012500062018201000F111FF801E655FE4F8081E7
:101260009181019709F035CF740161E0E1E08E16BC
:10127000910409F060E0842D0E94B500F801EE575A
:10128000FE4F918280828BE291E00E94DF02B201E8
:10129000CE0101960E941605CE0101960E94A90179
:1012A000CE0101960E940E0586E491E0FAE0CF1689
:1012B000D10414F087E491E00E94DF02EA94EF2861
:1012C00019F483E291E0CDCD87E291E0CACD2F8978
:1012D000388D48E050E0BE016D5E7F4FCE01019633
:1012E0000E94B904CE0101960E948F038B01CE01AA
:1012F00001960E940E057EEAC72E71E0D72EE2E02D
:10130000FE2E61E00115110509F460E08F2D0E94A9
:10131000E300F601019311936F01F394F4E1FF12DE
:10132000F0CF012B09F10BE111E064E571E0CE0192
:1013300001960E94A804BE016F5F7F4FCE01079601
:101340000E948E04B801CE0107960E941B040E94E1
:10135000A9010E94E602CE0107960E940E05CE0169
:1013600001960E940E05B5CE0FE111E0DECF672D8C
:101370000E94B50031CF232B09F4ABCE0B891C8919
:1013800061E771E0C8010E94810D892BC1F52EEA49
:10139000C22E21E0D22E36E8E32E31E0F32E02E019
:1013A00010E0B801CE0101960E941605CE0101960B
:1013B0000E94A901CE0101960E940E058FE391E0E3
:1013C0000E94DF02F701819191917F010E94120337
:1013D0008FE391E00E94DF02F601819191916F010C
:1013E0000E9412030331110521F086E791E00E946B
:1013F000DF020F5F1F4F0431110599F6E3CD68E757
:1014000071E0C8010E94810D892B09F052C09EEA4B
:10141000E92E91E0F92E02E010E0F701A190B190E1
:101420007F01A114B10409F03DC0F801E255FF4F5E
:101430008491F801E656FF4FC490F801EA57FF4F38
:10144000D490DD2099F081110E948C00ED2DF0E008
:10145000EE0FFF1FE859FF4FA591B491EC91CE22FA
:1014600091E080E009F490E0A92EB82E8CE791E09D
:101470000E94DF02B801CE0101960E941605CE013E
:1014800001960E94A901CE0101960E940E058FE3EC
:1014900091E00E94DF02C5010E94120386E791E0FD
:1014A0000E94DF020F5F1F4F0431110509F0B5CF15
:1014B00089CD6EE771E0C8010E94810D8C01892BF6
:1014C00009F007CE802F806480937C0080917A00A1
:1014D000806480937A0080917A0086FDFCCFE09052
:1014E0007800F090790080E891E00E94DF02C80166
:1014F0000E9412038FE391E00E94DF02C7010E9465
:1015000012030530110521F086E791E00E94DF0209
:101510000F5F1F4F06301105A9F654CDEBEDF1E03A
:101520001382128288EE93E0A0E0B0E0848395837A
:10153000A683B7838AE091E09183808385EC90E075
:101540009587848784EC90E09787868780EC90E08D
:10155000918B808B81EC90E0938B828B82EC90E07E
:10156000958B848B86EC90E0978B868B118E128EF8
:10157000138E148E08951F93FC0199278827BC01B0
:10158000E89411911032E9F3193010F01E30C8F3CD
:101590001B3251F01D3249F4689406C00E94ED0AD6
:1015A000610F711D811D911D119110531A30B0F3FF
:1015B0003EF490958095709561957F4F8F4F9F4F2A
:1015C0001F910895BB274A3031F4992322F4BDE2DC
:1015D000909581959F4F0C94030B592F482F372FCF
:1015E000262F660F771F881F991F660F771F881F8A
:1015F000991F620F731F841F951F660F771F881F27
:10160000991F0895BB27FB015527AA27880F991F0B
:10161000AA1FA41710F0A41B83955051B9F7A05D21
:10162000AA3308F0A95DA193009779F7B111B1939E
:101630001192CB010C941C0BDC01FC01672F719102
:101640007723E1F7329704C07C916D9370836291A8
:10165000AE17BF07C8F308952F923F924F925F9243
:101660006F927F928F929F92AF92BF92CF92DF92B2
:10167000EF92FF920F931F93CF93DF93CDB7DEB717
:10168000CA1BDB0B0FB6F894DEBF0FBECDBF0994AB
:101690002A88398848885F846E847D848C849B8402
:1016A000AA84B984C884DF80EE80FD800C811B8110
:1016B000AA81B981CE0FD11D0FB6F894DEBF0FBE3F
:1016C000CDBFED010895A1E21A2EAA1BBB1BFD019F
:1016D0000DC0AA1FBB1FEE1FFF1FA217B307E40711
:1016E000F50720F0A21BB30BE40BF50B661F771F69
:1016F000881F991F1A9469F7609570958095909549
:101700009B01AC01BD01CF010895EE0FFF1F0590B5
:10171000F491E02D09940F931F93CF93DF938230C0
:10172000910510F482E090E0E0917A02F0917B0262
:1017300030E020E0B0E0A0E0309799F421153105C9
:1017400009F44AC0281B390B24303105D8F58A81A9
:101750009B816115710589F1FB0193838283FE01F1
:1017600011C0408151810281138148175907E0F06F
:101770004817590799F4109761F012960C93129735
:1017800013961C933296CF01DF91CF911F910F9149
:10179000089500937A0210937B02F4CF211531054E
:1017A00051F04217530738F0A901DB019A01BD013E
:1017B000DF01F801C1CFEF01F9CF90937B02809355
:1017C0007A02CDCFFE01E20FF31F81939193225055
:1017D000310939832883D7CF20917802309179025B
:1017E000232B41F4209102013091030130937902BF
:1017F00020937802209100013091010121153105DB
:1018000041F42DB73EB74091040150910501241BCE
:10181000350BE0917802F0917902E217F307A0F41A
:101820002E1B3F0B2817390778F0AC014E5F5F4F36
:101830002417350748F04E0F5F1F509379024093ED
:101840007802819391939FCFF0E0E0E09CCFCF931B
:10185000DF930097E9F0FC01329713821282A09186
:101860007A02B0917B02ED0130E020E01097A1F404
:1018700020813181820F931F20917802309179026B
:101880002817390709F061C0F0937902E0937802D4
:10189000DF91CF910895EA01CE17DF07E8F54A817D
:1018A0005B819E0141155105B1F7E901FB83EA8394
:1018B00049915991C40FD51FEC17FD0761F4808140
:1018C00091810296840F951FE90199838883828113
:1018D00093819B838A83F0E0E0E012968D919C9146
:1018E00013970097B9F52D913C911197CD01029670
:1018F000820F931F209178023091790228173907BF
:1019000039F6309751F510927B0210927A02B0931B
:101910007902A0937802BCCFD383C28340815181E6
:10192000840F951FC817D90761F44E5F5F4F8881F8
:101930009981480F591F518340838A819B819383EA
:1019400082832115310509F0B0CFF0937B02E0933B
:101950007A029ECFFD01DC01C0CF13821282D7CF65
:10196000B0E0A0E0E6EBFCE00C942E0B8C010097BD
:1019700051F4CB010E948B0B8C01C801CDB7DEB7AF
:10198000E0E10C944A0BFC01E60FF71F9C0122508A
:101990003109E217F30708F49DC0D901CD91DC911C
:1019A0001197C617D70798F0C530D10530F3CE018F
:1019B00004978617970708F3C61BD70B2297C19386
:1019C000D1936D937C93CF010E94270CD6CF5B01FE
:1019D000AC1ABD0A4C018C0E9D1EA0917A02B091EA
:1019E0007B02512C412CF12CE12C109731F5809188
:1019F0007802909179028815990509F05CC0461625
:101A0000570608F058C0809100019091010100979D
:101A100041F48DB79EB74091040150910501841B9C
:101A2000950BE817F90708F055C0F0937902E09399
:101A30007802F90171836083A0CF8D919C911197F9
:101A400012966C90129713967C901397A815B9056F
:101A500059F56C0142E0C40ED11CCA14DB0420F11C
:101A6000AC014A195B09DA011296159780F062827F
:101A7000738251834083D9016D937C93E114F10407
:101A800071F0D7011396FC93EE93129776CF2296BE
:101A90008C0F9D1FF90191838083F301EFCFF093A9
:101AA0007B02E0937A0269CF4816590608F42C01AC
:101AB0007D01D3019ACFCB010E948B0B7C01009753
:101AC00049F0AE01B8010E946D0DC8010E94270CBB
:101AD000870153CF10E000E050CFFB01DC0102C0D2
:101AE00001900D9241505040D8F70895FC0181912A
:101AF000861721F08823D9F7992708953197CF01C8
:101B00000895FB01DC018D91019080190110D9F33A
:101B1000990B0895FB01DC0101900D920020E1F783
:101B20000895FB01DC014150504030F08D9101904F
:101B3000801919F40020B9F7881B990B0895F894BF
:021B4000FFCFD5
:101B420000007C0280000000000065027C01B201FE
:101B5200B2022302C10115020D0A004F5554004979
:101B62004E00204F4E00204F46460050494E200066
:101B7200204D4F44453A50415300204D4F44453A81
:101B82000050574D200020203A2000414C4C4D4F30
:101B92004445200050494E20414C4C4D4F44453A5B
:101BA2002000414C4C200050494E20414C4C3A20E0
:101BB2000053544154002C00444947004400414E14
:021BC2004100E0
:00000001FF
